HEMPRESA MIXTA SOCIALISTA ARROZ DEL ALBA,010204224200001042650111/12/12000000667508503291 
101020395360100078706000000300001770FIGUEROA, JOSE RAMON                    0009564903003291  
101020395360100077961000000400001770PEREZ SANCHEZ, PEDRO ANTONIO            0009569079003291  
101020165960100026227000000750001770GONZALEZ RODRIGUEZ, MANUEL ANTONIO      0010140861003291  
101020395310100078314000001602001770CORDERO, ULISES ANTONIO                 0011541347003291  
101020395340100078710000001000001770LINAREZ PEREIRA, JOSE GREGORIO          0011546595003291  
101020330970100777989000000520881770MEJIAS MENDEZ, FIDEL ANTONIO            0012264438003291  
101020395320100078692000000234501770GONZALEZ JIMENEZ, GUILLERMO EMILIO      0012266407003291  
101020330910100786530000000400001770DURAN MONTES, MARIA DE LOS ANGELES      0013073131003291  
101020330900100788111000001806771770HERRERA BARRIOS, WILMER WALDERRAMAR     0013485739003291  
101020395330100078070000000359991770ESCALONA GUTIERREZ, NILSON ANTONIO      0014091175003291  
101020165990100023236000000885891770CUENCAS CASTROS, NORIS YAMILETH         0014092771003291  
101020330980100786585000000150001770MENDOZA ALVAREZ, ANIBAL ANTONIO         0014092815003291  
101020165940100027685000000900001770GOMEZ GOMEZ, LEIDY VIRGINIA             0014413972003291  
101020165920100029700000000298501770ESCOBAR CORDERO, OSCAR DAVID            0015071538003291  
101020330940100791322000000350001770GONZALEZ, EDUARDO RAFAEL                0015339491003291  
101020395390100076699000001615001770COLMENAREZ VASQUEZ, ELSY CAROLINA       0015869120003291  
101020165930100024228000002875851770MORANTES JIMENEZ, MAYERLIN JANETH       0016386789003291  
101020330950100787486000000400001770VEJAS CARO, YORMAN ALEXANDER            0016966200003291  
101020330910100785210000001663851770MONTES VASQUEZ, GREGORIA CRISTINA       0017945099003291  
101020330940100788114000001350001770TORRES LOPEZ, JUVITO ALFONZO            0017946898003291  
101020330960100788760000000300001770ARRIECHI, ENZO ANTONIO                  0017946992003291  
101020165950100026706000000500001770PIÑA ALVAREZ, NAUDIS RAFAEL             0019377150003291  
101020165910100026197000000105001770ARANGUREN ALVARADO, CARLOS ANTONIO      0020642330003291  
001020336810000091912000000516930770HOPKINS, JANETH CRISTINA                0006549906003291  
001020330960000004077000000400000770SIERRA VASQUEZ, EFREN BRAIR             0007543855003291  
001020395330000007485000000300000770PINTO MARTINEZ, GILBERTO ANTONIO        0007599002003291  
001020336850000050720000000400000770BENAVENTA GONZALEZ, JOSE GREGORIO       0008633844003291  
001020395370000021092000001008340770CRESPO COLMENAREZ, BELKIS COROMOTO      0008657682003291  
001020330920000004048000002787040770MAMBEL, PEDRO ANTONIO                   0009044561003291  
001020336840000051651000000275000770GONZALEZ RODRIGUEZ, MARGA ELENA         0009432641003291  
001020112810000031859000001665150770ROMAN PARRA, RAFAEL RAMON               0009569409003291  
001020165950000037031000002624500770FEBRES OROPEZA, MAHIBEL MARIA           0010142440003291  
001020330930000004705000000755000770SULBARAN BALZA, ALEXIS ENRIQUEZ         0010144490003291  
001020336800000047160000000260000770RENGIFO, PEDRO                          0010273873003291  
001020422430000104757000001714480770BARRIOS, FERNANDO ANTONIO               0010665813003291  
001020330970000031545000000992380770APONTE MENDOZA, LUIS ENRIQUE            0011082374003291  
001020112880000028642000000600000770MENDOZA CORDOBA, LISDY ANEIDA           0011083527003291  
001020312180000037743000004899830770RODRIGUEZ MACHIQUEZ, MARGHILYZ DE JESUS 0011525250003291  
001020165910000063762000001074580770MENDOZA, MARIA AUXILIADORA              0011540631003291  
001020112890000030012000000820000770ALVARADO VISCAYA, JELIBETH DEL CARMEN   0011785981003291  
001020165990000047717000001570000770BLANCO MARRAEZ, GLADYS COROMOTO         0012262410003291  
001020165920000052090000000589260770SILVA RODRIGUEZ, WILLIAN ALEXANDER      0012264783003291  
001020336890000052142000000300000770RAMIREZ QUINTANA, CARLOS PATRICIO       0012475082003291  
001020742840000030698000000150000770ROJAS, GIMMI JOSE                       0012858021003291  
001020330950000098261000001371990770MARTINEZ BRICEÑO, FRANCISCO JAVIER      0012858761003291  
001020112860000031901000000456000770CUERVO ARANGUREN, EMILIN YTALIA         0013036421003291  
001020165910000045777000000300000770APONTE, MILAGROS COROMOTO               0013226149003291  
001020395380000020967000000600000770IACOBUCCI SIEK, ALEXANDRA               0013227704003291  
001020336830000054218000001175660770CONTRERAS CAMACHO, ARNALDO JOSE         0013264124003291  
001020165960000044231000000250000770MORA CALZADA, YULY GLEIMAR              0013353300003291  
001020165950000045890000000620450770PADILLA VILLAVICENCIO, ELVYS ENDER      0013555075003291  
001020395310000021199000000600000770ARIAS, CARLOS ALBERTO                   0013585413003291  
001020395300000045298000000394260770BRIZUELA FLORES, FREDDY HUMBERTO        0013906103003291  
001020330980000118837000000900000770ROJAS OTERO, STALIN ALBERTO             0014092210003291  
001020336880000091161000000300000770MARCANO, YOBANA DEL CARMEN              0014538117003291  
001020395310000021212000000600000770VASQUEZ, MIGUEL ANTONIO                 0014540230003291  
001020165900000054674000000420000770CARRASCO CORDERO, CIRILO SEGUNDO        0014888905003291  
001020336830000053604000001229000770MONTERO, JOSE RAFAEL                    0015144159003291  
001020330910000068602000000740000770CORDERO, GREGORIO ANTONIO               0015214739003291  
001020395330000027753000003823810770REYES SALCEDO, JOHN RAFAEL              0015371069003291  
001020395300000021681000000651380770BELZARES DELGADO, DANIEL IVAN           0015461852003291  
001020336860000052362000000584900770ROJAS, JEAN CARLOS                      0015480462003291  
001020330990000098452000000440000770ACOSTA NOGUERA, ARELYS                  0015693833003291  
001020336870000052854000000399800770VEGAS GONZALEZ, JESUS ANTONIO           0015812887003291  
001020165910000045366000000892330770RIVERO SANCHEZ, IVAN JOSE               0016414995003291  
001020336820000050775000000487250770PACHECO, DANIEL ARMANDO JOSE            0016435847003291  
001020395370000021254000000400000770GAINZA LOPEZ, DEISYS CAROLINA           0016565969003291  
001020395380000021021000000163300770BONILLA APONTE, ABRAHAM RAMON           0016566467003291  
001020395340000021717000000712500770SEQUERA GRANADO, VICTOR MANUEL          0016566845003291  
001020336860000107974000000250000770ZERPA ZAMORA, MARIA ANDREINA            0016639024003291  
001020336800000047076000000400940770CORONADO SANCHEZ, MIGUEL ANGEL          0016640708003291  
001020336870000090942000000300000770GARCIA, JUAN EDUARDO                    0017164247003291  
001020330930000077198000000329520770GALLEGOS BONILLA, MILAGROS EVANGELISTA  0017796642003291  
001020395310000025124000000905500770COLMENAREZ ESCOLCHA, DEIVIS JOSE        0018844009003291  
001020395320000021296000000800000770RODRIGUEZ LOPEZ, HUMBERTO RAMON         0018929982003291  
001020330980000064648000000600000770HERNANDEZ TORRES, CARLOS EDUARDO        0019052735003291  
001020862970000016780000000533860770RODRIGUEZ VASQUEZ, JINETH KARYN         0019338681003291  
001020395370000030164000000500000770CORDOVA ANGULO, CARLOS VICENTE          0019636360003291  
001020165970000051994000000437000770MORALES URBANO, VICTOR ANTONIO          0019799308003291  
001020330940000125600000000710680770MEDINA GONZALEZ, JOSE ARGENIS           0020156351003291  
