HEMPRESA MIXTA SOCIALISTA ARROZ DEL ALBA,010204224200001042650128/05/12000000205371603291 
001020165990000063979000003422860770CARABALLO REGALADO, LUIS EVARISTO       0000073717003291  
001020165980000064431000003422860770LORENZO VITON, TENSY LORENZA            0000092619003291  
001020165910000064457000003422860770ESTRADA RODRIGUEZ, WILLIAMS             0000092715003291  
001020336800000071152000003422860770ALMAGUER PEREZ, JOSE WALDO              0000092718003291  
001020336830000071178000003422860770DE LAS CUEVAS CLETO, IGNACIO            0000092719003291  
001020336850000072216000003422860770PIÑA GUTIERREZ, YSAEL                   0000093228003291  
