HEMPRESA MIXTA SOCIALISTA ARROZ DEL ALBA,010204224200001042650111/01/12000000224512703291 
001020395330000022729000002779000770LUGO HERNANDEZ, ISRAEL                  0000208473003291  
001020395310000022716000002569010770SUAREZ, JUAN CARLOS                     0000339395003291  
001020395330000022732000002569010770MARTINEZ GRILLO, JOSE FLORENCIO         0000339701003291  
001020112810000060231000002402410770LINARES PEREZ, MARY LOURDES             0011588508003291  
001020112890000034979000002417260770PULIDO FLOREZ, MARILU                   0012403257003291  
001020112880000028723000002492500770PIREZ PIÑA, COROMOTO ANTONIO            0012447054003291  
001020330930000084796000002417260770SOSA GIMENEZ, MANUEL JOSE               0015866770003291  
001020674070000018199000002402410770PRIETO REYES, GABRIELA JOSEFINA         0017276263003291  
001020312140000049278000002402410770MONFRINO ALTUVE, LUIS EDUARDO           0018058497003291  
