HEMPRESA MIXTA SOCIALISTA ARROZ DEL ALBA,010204224200001042650129/11/12000000154413003291 
001020395340000043782000001715700770GONZALEZ MAJIN, LEONEL                  0000000825003291  
001020395340000043300000001715700770GARCIA PEREZ, GENARO RAFAEL             0000000834003291  
001020870060000018856000001715700770PEREZ HERNADEZ, YOAN                    0000001187003291  
001020870060000018937000001715700770REYES PICARRO, ARMELIO RICARDO          0000001206003291  
001020336880000110369000001715700770RAMIREZ SANCHEZ, LUIS ALBERTO           0000003268003291  
001020336860000110194000001715700770GAMBOA SOSA, GILBERTO                   0000003500003291  
001020336870000112325000001715700770PEREZ LEYVA, JORGE                      0000003555003291  
001020165900000090557000001715700770GONZALEZ HERNAN, MARIA LUISA            0000003558003291  
001020336870000110204000001715700770ARIAS PEREZ, FIDEL                      0000003530003291  
