HEMPRESA MIXTA SOCIALISTA ARROZ DEL ALBA,010204224200001042650117/07/12000000644251503291 
101020395360100077961000000360001770PEREZ SANCHEZ, PEDRO ANTONIO            0009569079003291  
101020165960100026227000000431131770GONZALEZ RODRIGUEZ, MANUEL ANTONIO      0010140861003291  
101020336890104395251000000472001770CHOURIO CHOURIO, NERIO SEGUNDO          0011215806003291  
101020395340100078710000000907001770LINAREZ PEREIRA, JOSE GREGORIO          0011546595003291  
101020330900100786634000000200001770MANAVALLES, ALBERTO JOSE                0011848760003291  
101020395320100078692000000758011770GONZALEZ JIMENEZ, GUILLERMO EMILIO      0012266407003291  
101020330900100788111000001489401770HERRERA BARRIOS, WILMER WALDERRAMAR     0013485739003291  
101020395350100076558000002000001770GUARENTE HEREDIA, CLAUDIA               0013785339003291  
101020165990100023236000001880001770CUENCAS CASTROS, NORIS YAMILETH         0014092771003291  
101020165940100027685000000801391770GOMEZ GOMEZ, LEIDY VIRGINIA             0014413972003291  
101020165990100026234000001312501770COLMENAREZ MORENO, JOSE GREGORIO        0014425942003291  
101020330910100786592000000150001770GODOY VASQUEZ, ANDRES AVELINO           0014980471003291  
101020165920100029700000000825851770ESCOBAR CORDERO, OSCAR DAVID            0015071538003291  
101020165900100028458000000250001770MACHADO GARCIA, ENDER ANTONIO           0015491709003291  
101020330900100780073000000250001770CORDERO LAZARO, EDUARDO ENRIQUE         0015867019003291  
101020395390100076699000001805841770COLMENAREZ VASQUEZ, ELSY CAROLINA       0015869120003291  
101020165930100024228000001725001770MORANTES JIMENEZ, MAYERLIN JANETH       0016386789003291  
101020330950100788119000001916001770FREITEZ FALCON, RENZO JOSE              0016416522003291  
101020330910100785210000000636001770MONTES VASQUEZ, GREGORIA CRISTINA       0017945099003291  
101020330940100788114000000467281770TORRES LOPEZ, JUVITO ALFONZO            0017946898003291  
101020165970100026719000001156301770PARRA VASQUEZ, ANGEL DAVID              0019637051003291  
001020330900009983115000001109970770ORTIZ SUAREZ, NESTOR REINALDO           0003866991003291  
001020395320000021461000000738760770VARGAS HERNANDEZ, ALEXANDER ALBERTO     0005363739003291  
001020422460000133469000000589890770ALVARADO MERLO, SONNY ANTONIO           0007384272003291  
001020330960000004077000000546370770SIERRA VASQUEZ, EFREN BRAIR             0007543855003291  
001020395320000021380000000283000770GONZALEZ SUAREZ, ALEXIS SILVESTRE       0007595395003291  
001020336830000049634000000334000770TROCEL FLORES, JUAN ANGEL               0008623872003291  
001020395370000021092000000450000770CRESPO COLMENAREZ, BELKIS COROMOTO      0008657682003291  
001020395380000021102000000127000770MORILLO SEGURA, GRACIELA                0008660443003291  
001020330910000001546000000855500770GONZALEZ SANCHEZ, VICTOR RAMON          0008660986003291  
001020330920000004048000000400000770MAMBEL, PEDRO ANTONIO                   0009044561003291  
001020112810000031859000001270000770ROMAN PARRA, RAFAEL RAMON               0009569409003291  
001020336840000090515000000400000770BELLO NIEVES, DAXI JOSEFINA             0010271178003291  
001020147100000021238000000939630770SERENO RODRIGUEZ, JOSE ANTONIO          0010724989003291  
001020330910000064350000000330000770TORCATES LOPEZ, AMADO ENRIQUE           0011079797003291  
001020312180000037743000001217000770RODRIGUEZ MACHIQUEZ, MARGHILYZ DE JESUS 0011525250003291  
001020165910000063762000000300000770MENDOZA, MARIA AUXILIADORA              0011540631003291  
001020112890000030012000001031000770ALVARADO VISCAYA, JELIBETH DEL CARMEN   0011785981003291  
001020112830000028684000000760000770DAZA RAMOS, NAUDY JOSE                  0012027888003291  
001020165930000052906000000512500770TOVAR RIVERO, ALEXIS LORETO             0012263227003291  
001020336850000092885000000299300770APONTE PEÑA, MARBELIS JASMIN            0012562597003291  
001020330950000098261000000550000770MARTINEZ BRICEÑO, FRANCISCO JAVIER      0012858761003291  
001020112860000031901000000951200770CUERVO ARANGUREN, EMILIN YTALIA         0013036421003291  
001020395380000020967000001261640770IACOBUCCI SIEK, ALEXANDRA               0013227704003291  
001020395320000021458000000904000770DELGADO DI DIOMEDE, ERIKA               0013228242003291  
001020395340000021474000005825000770SALCEDO, CARLOS DANIEL                  0013555798003291  
001020330910000098465000000515500770ANGULO MENDEZ, OLGA CONZUELO            0014092444003291  
001020336850000085449000000250000770CASTILLO, HERMINIA BEATRIZ              0014239182003291  
001020395360000036524000000144510770BASTIDAS CASAMAYOR, ELISAUL ALEXANDER   0014425186003291  
001020315560000123851000000720470770ESCALANTE PERÉZ, OSWAL JOSE             0014512161003291  
001020336880000091161000000522300770MARCANO, YOBANA DEL CARMEN              0014538117003291  
001020112830000028846000001668100770CIOFFI APONTE, REINA DEL CARMEN         0014538752003291  
001020395310000021212000000650000770VASQUEZ, MIGUEL ANTONIO                 0014540230003291  
001020165900000054674000002314700770CARRASCO CORDERO, CIRILO SEGUNDO        0014888905003291  
001020330900000080363000000458450770PUERTA PEREZ, ILDEGAR ALIRIO            0015486915003291  
001020330990000098452000000200000770ACOSTA NOGUERA, ARELYS                  0015693833003291  
001020395350000021238000000400000770MARTINEZ CORONADO, DAVID JOSE           0015868550003291  
001020395350000021241000000611940770MARQUEZ CALDERON, WILMER OMAR           0016040072003291  
001020330950000076759000001362410770GARCIA RUIZ, KELLYS EISENHOWER          0016073371003291  
001020336830000051321000000774040770PARRA VEGA, ADA MARIA                   0016384778003291  
001020395380000021018000001036980770CAMACARO, LUIS ANGEL                    0016565939003291  
001020395370000021254000000741140770GAINZA LOPEZ, DEISYS CAROLINA           0016565969003291  
001020336860000052359000000808500770PADRINO, DAMARYS DEL VALLE              0016639572003291  
001020395310000021050000000320000770ULACIO, CLEMENTE RAMON                  0017278779003291  
001020330930000068369000000220000770BARRIOS PEROZO, ALEXIS JOSE             0017364115003291  
001020330990000098368000000220480770LAMEDA  DIAZ, JOSE ANTONIO              0017797582003291  
001020395310000029528000000150000770DIAZ COLMENAREZ, JOSE GREGORIO          0017944096003291  
001020330980100786912000000330000770MANJARES PALENCIA, HIVANEL              0018102664003291  
001020112800000031765000000271980770TORRES HEREDIA, JOHANA DEL CARMEN       0018261478003291  
001020395330000021063000000969060770QUERALES  RODRIGUEZ, NAYROVI NAHOMI     0018871270003291  
001020330990000060655000000385130770LOPEZ GOMEZ, YULEIMA CAROLINA           0019053988003291  
001020742880000003353000006000000770MIGUEL ERNESTO, PEREZ LIMA              0019259968003291  
001020165940000053853000000600000770RODRIGUEZ, YUSMAIRA DEL CARMEN          0019798052003291  
